{
  "_format": "hh-sol-artifact-1",
  "contractName": "Vault",
  "sourceName": "contracts/Vault.sol",
  "abi": [
    {
      "anonymous": false,
      "inputs": [
        {
          "indexed": false,
          "internalType": "bytes32",
          "name": "vaultHash",
          "type": "bytes32"
        },
        {
          "indexed": true,
          "internalType": "address",
          "name": "player",
          "type": "address"
        },
        {
          "indexed": false,
          "internalType": "uint256",
          "name": "amount",
          "type": "uint256"
        }
      ],
      "name": "PlayerJoined",
      "type": "event"
    },
    {
      "anonymous": false,
      "inputs": [
        {
          "indexed": false,
          "internalType": "bytes32",
          "name": "vaultHash",
          "type": "bytes32"
        },
        {
          "indexed": true,
          "internalType": "address",
          "name": "admin",
          "type": "address"
        }
      ],
      "name": "VaultCreated",
      "type": "event"
    },
    {
      "anonymous": false,
      "inputs": [
        {
          "indexed": false,
          "internalType": "bytes32",
          "name": "vaultHash",
          "type": "bytes32"
        },
        {
          "indexed": true,
          "internalType": "address",
          "name": "admin",
          "type": "address"
        },
        {
          "indexed": false,
          "internalType": "uint256",
          "name": "totalAmount",
          "type": "uint256"
        }
      ],
      "name": "VaultOpened",
      "type": "event"
    },
    {
      "inputs": [
        {
          "internalType": "bytes32",
          "name": "_hash",
          "type": "bytes32"
        }
      ],
      "name": "getVaultAdmin",
      "outputs": [
        {
          "internalType": "address",
          "name": "",
          "type": "address"
        }
      ],
      "stateMutability": "view",
      "type": "function"
    },
    {
      "inputs": [
        {
          "internalType": "bytes32",
          "name": "_hash",
          "type": "bytes32"
        }
      ],
      "name": "getVaultAmount",
      "outputs": [
        {
          "internalType": "uint8",
          "name": "",
          "type": "uint8"
        }
      ],
      "stateMutability": "view",
      "type": "function"
    },
    {
      "inputs": [
        {
          "internalType": "bytes32",
          "name": "_hash",
          "type": "bytes32"
        }
      ],
      "name": "getVaultName",
      "outputs": [
        {
          "internalType": "string",
          "name": "",
          "type": "string"
        }
      ],
      "stateMutability": "view",
      "type": "function"
    },
    {
      "inputs": [
        {
          "internalType": "bytes32",
          "name": "_hash",
          "type": "bytes32"
        }
      ],
      "name": "getVaultPlayers",
      "outputs": [
        {
          "internalType": "address[]",
          "name": "",
          "type": "address[]"
        }
      ],
      "stateMutability": "view",
      "type": "function"
    },
    {
      "inputs": [
        {
          "internalType": "bytes32",
          "name": "_hash",
          "type": "bytes32"
        },
        {
          "internalType": "uint256[3]",
          "name": "_values",
          "type": "uint256[3]"
        }
      ],
      "name": "joinVault",
      "outputs": [],
      "stateMutability": "payable",
      "type": "function"
    },
    {
      "inputs": [
        {
          "internalType": "bytes32",
          "name": "_hash",
          "type": "bytes32"
        }
      ],
      "name": "openVault",
      "outputs": [
        {
          "internalType": "address",
          "name": "",
          "type": "address"
        }
      ],
      "stateMutability": "nonpayable",
      "type": "function"
    },
    {
      "inputs": [
        {
          "internalType": "bytes32",
          "name": "",
          "type": "bytes32"
        },
        {
          "internalType": "address",
          "name": "",
          "type": "address"
        },
        {
          "internalType": "uint256",
          "name": "",
          "type": "uint256"
        }
      ],
      "name": "playerValues",
      "outputs": [
        {
          "internalType": "uint256",
          "name": "",
          "type": "uint256"
        }
      ],
      "stateMutability": "view",
      "type": "function"
    },
    {
      "inputs": [
        {
          "internalType": "string",
          "name": "_vaultName",
          "type": "string"
        },
        {
          "internalType": "uint8",
          "name": "_players",
          "type": "uint8"
        },
        {
          "internalType": "uint8",
          "name": "_activeDuration",
          "type": "uint8"
        },
        {
          "internalType": "uint8",
          "name": "_vaultValue",
          "type": "uint8"
        }
      ],
      "name": "startGameAdmin",
      "outputs": [
        {
          "internalType": "bytes32",
          "name": "",
          "type": "bytes32"
        }
      ],
      "stateMutability": "nonpayable",
      "type": "function"
    },
    {
      "inputs": [],
      "name": "vaultId",
      "outputs": [
        {
          "internalType": "uint8",
          "name": "",
          "type": "uint8"
        }
      ],
      "stateMutability": "view",
      "type": "function"
    },
    {
      "inputs": [
        {
          "internalType": "bytes32",
          "name": "",
          "type": "bytes32"
        },
        {
          "internalType": "uint256",
          "name": "",
          "type": "uint256"
        }
      ],
      "name": "vaultPlayers",
      "outputs": [
        {
          "internalType": "address",
          "name": "",
          "type": "address"
        }
      ],
      "stateMutability": "view",
      "type": "function"
    },
    {
      "inputs": [
        {
          "internalType": "bytes32",
          "name": "",
          "type": "bytes32"
        }
      ],
      "name": "vaults",
      "outputs": [
        {
          "internalType": "address",
          "name": "vaultAdmin",
          "type": "address"
        },
        {
          "internalType": "uint256",
          "name": "vaultId",
          "type": "uint256"
        },
        {
          "internalType": "bytes32",
          "name": "vaultKey",
          "type": "bytes32"
        },
        {
          "internalType": "string",
          "name": "vaultName",
          "type": "string"
        },
        {
          "internalType": "uint8",
          "name": "players",
          "type": "uint8"
        },
        {
          "internalType": "bool",
          "name": "isActive",
          "type": "bool"
        },
        {
          "internalType": "uint8",
          "name": "vaultValue",
          "type": "uint8"
        },
        {
          "internalType": "uint8",
          "name": "activeDuration",
          "type": "uint8"
        },
        {
          "internalType": "uint256",
          "name": "startTime",
          "type": "uint256"
        },
        {
          "internalType": "bytes32",
          "name": "vaultHash",
          "type": "bytes32"
        }
      ],
      "stateMutability": "view",
      "type": "function"
    }
  ],
  "bytecode": "0x60806040526001600360006101000a81548160ff021916908360ff160217905550348015602b57600080fd5b50611e848061003b6000396000f3fe60806040526004361061009c5760003560e01c8063a22ff2d311610064578063a22ff2d3146101c0578063c6fd0542146101dc578063cca23bf214610219578063eb0f44891461025f578063f345e6d01461029c578063fab9bd5e146102d95761009c565b80632c6de42d146100a157806333194c0a146100de5780636331baab146101095780636366b861146101465780638fec531514610183575b600080fd5b3480156100ad57600080fd5b506100c860048036038101906100c39190610f8b565b610316565b6040516100d59190610fd4565b60405180910390f35b3480156100ea57600080fd5b506100f3610342565b6040516101009190610fd4565b60405180910390f35b34801561011557600080fd5b50610130600480360381019061012b9190610f8b565b610355565b60405161013d919061107f565b60405180910390f35b34801561015257600080fd5b5061016d60048036038101906101689190610f8b565b6103fc565b60405161017a91906110e2565b60405180910390f35b34801561018f57600080fd5b506101aa60048036038101906101a5919061115f565b61043b565b6040516101b791906111c1565b60405180910390f35b6101da60048036038101906101d59190611312565b610470565b005b3480156101e857600080fd5b5061020360048036038101906101fe9190610f8b565b610762565b6040516102109190611410565b60405180910390f35b34801561022557600080fd5b50610240600480360381019061023b9190610f8b565b610803565b6040516102569a9998979695949392919061145c565b60405180910390f35b34801561026b57600080fd5b50610286600480360381019061028191906114ff565b610933565b60405161029391906110e2565b60405180910390f35b3480156102a857600080fd5b506102c360048036038101906102be9190611620565b610981565b6040516102d091906116a3565b60405180910390f35b3480156102e557600080fd5b5061030060048036038101906102fb9190610f8b565b610c1a565b60405161030d91906110e2565b60405180910390f35b600080600083815260200190815260200160002060040160029054906101000a900460ff169050919050565b600360009054906101000a900460ff1681565b60606000808381526020019081526020016000206003018054610377906116ed565b80601f01602080910402602001604051908101604052809291908181526020018280546103a3906116ed565b80156103f05780601f106103c5576101008083540402835291602001916103f0565b820191906000526020600020905b8154815290600101906020018083116103d357829003601f168201915b50505050509050919050565b600080600083815260200190815260200160002060000160009054906101000a900473ffffffffffffffffffffffffffffffffffffffff169050919050565b6002602052826000526040600020602052816000526040600020816003811061046357600080fd5b0160009250925050505481565b60008060008481526020019081526020016000209050828160060154146104cc576040517f08c379a00000000000000000000000000000000000000000000000000000000081526004016104c39061176a565b60405180910390fd5b8060040160019054906101000a900460ff1661051d576040517f08c379a0000000000000000000000000000000000000000000000000000000008152600401610514906117d6565b60405180910390fd5b8060040160029054906101000a900460ff1660ff16341015610574576040517f08c379a000000000000000000000000000000000000000000000000000000000815260040161056b90611868565b60405180910390fd5b60016000848152602001908152602001600020339080600181540180825580915050600190039060005260206000200160009091909190916101000a81548173ffffffffffffffffffffffffffffffffffffffff021916908373ffffffffffffffffffffffffffffffffffffffff1602179055508060040160009054906101000a900460ff1660ff1660016000858152602001908152602001600020805490501115610655576040517f08c379a000000000000000000000000000000000000000000000000000000000815260040161064c906118d4565b60405180910390fd5b816002600085815260200190815260200160002060003373ffffffffffffffffffffffffffffffffffffffff1673ffffffffffffffffffffffffffffffffffffffff1681526020019081526020016000209060036106b4929190610ee4565b508060040160009054906101000a900460ff1660ff1660016000858152602001908152602001600020805490500361070d5760008160040160016101000a81548160ff0219169083151502179055504281600501819055505b3373ffffffffffffffffffffffffffffffffffffffff167f65525cf08411b7a61d237681a43890956ad2e2ede88afd947f58eb4158c37f9584346040516107559291906118f4565b60405180910390a2505050565b6060600160008381526020019081526020016000208054806020026020016040519081016040528092919081815260200182805480156107f757602002820191906000526020600020905b8160009054906101000a900473ffffffffffffffffffffffffffffffffffffffff1673ffffffffffffffffffffffffffffffffffffffff16815260200190600101908083116107ad575b50505050509050919050565b60006020528060005260406000206000915090508060000160009054906101000a900473ffffffffffffffffffffffffffffffffffffffff1690806001015490806002015490806003018054610858906116ed565b80601f0160208091040260200160405190810160405280929190818152602001828054610884906116ed565b80156108d15780601f106108a6576101008083540402835291602001916108d1565b820191906000526020600020905b8154815290600101906020018083116108b457829003601f168201915b5050505050908060040160009054906101000a900460ff16908060040160019054906101000a900460ff16908060040160029054906101000a900460ff16908060040160039054906101000a900460ff1690806005015490806006015490508a565b6001602052816000526040600020818154811061094f57600080fd5b906000526020600020016000915091509054906101000a900473ffffffffffffffffffffffffffffffffffffffff1681565b600080600360009054906101000a900460ff1686336040516020016109a8939291906119d7565b604051602081830303815290604052805190602001209050600086336040516020016109d5929190611a10565b6040516020818303038152906040528051906020012090506040518061014001604052803373ffffffffffffffffffffffffffffffffffffffff168152602001600360009054906101000a900460ff1660ff1681526020018381526020018881526020018760ff1681526020016001151581526020018560ff1681526020018660ff168152602001600081526020018281525060008083815260200190815260200160002060008201518160000160006101000a81548173ffffffffffffffffffffffffffffffffffffffff021916908373ffffffffffffffffffffffffffffffffffffffff16021790555060208201518160010155604082015181600201556060820151816003019081610aea9190611be4565b5060808201518160040160006101000a81548160ff021916908360ff16021790555060a08201518160040160016101000a81548160ff02191690831515021790555060c08201518160040160026101000a81548160ff021916908360ff16021790555060e08201518160040160036101000a81548160ff021916908360ff160217905550610100820151816005015561012082015181600601559050503373ffffffffffffffffffffffffffffffffffffffff167ff4b1ceb1417c85288ccfc33dc69a1585ee094a2357478477269745de0f29b4e582604051610bcd91906116a3565b60405180910390a26003600081819054906101000a900460ff1680929190610bf490611ce5565b91906101000a81548160ff021916908360ff160217905550508092505050949350505050565b60008060008084815260200190815260200160002090508060040160019054906101000a900460ff1615610c83576040517f08c379a0000000000000000000000000000000000000000000000000000000008152600401610c7a90611d5a565b60405180910390fd5b3373ffffffffffffffffffffffffffffffffffffffff168160000160009054906101000a900473ffffffffffffffffffffffffffffffffffffffff1673ffffffffffffffffffffffffffffffffffffffff1614610d15576040517f08c379a0000000000000000000000000000000000000000000000000000000008152600401610d0c90611dec565b60405180910390fd5b600060016000858152602001908152602001600020805480602002602001604051908101604052809291908181526020018280548015610daa57602002820191906000526020600020905b8160009054906101000a900473ffffffffffffffffffffffffffffffffffffffff1673ffffffffffffffffffffffffffffffffffffffff1681526020019060010190808311610d60575b50505050509050600081518360040160029054906101000a900460ff1660ff16610dd49190611e0c565b90508260000160009054906101000a900473ffffffffffffffffffffffffffffffffffffffff1673ffffffffffffffffffffffffffffffffffffffff166108fc829081150290604051600060405180830381858888f19350505050158015610e40573d6000803e3d6000fd5b508260000160009054906101000a900473ffffffffffffffffffffffffffffffffffffffff1673ffffffffffffffffffffffffffffffffffffffff167f3922d3733dbf8f732109d322436dacebd516e600bcc30f519a70e5d2bb8a83bd8683604051610ead9291906118f4565b60405180910390a28260000160009054906101000a900473ffffffffffffffffffffffffffffffffffffffff169350505050919050565b8260038101928215610f13579160200282015b82811115610f12578251825591602001919060010190610ef7565b5b509050610f209190610f24565b5090565b5b80821115610f3d576000816000905550600101610f25565b5090565b6000604051905090565b600080fd5b600080fd5b6000819050919050565b610f6881610f55565b8114610f7357600080fd5b50565b600081359050610f8581610f5f565b92915050565b600060208284031215610fa157610fa0610f4b565b5b6000610faf84828501610f76565b91505092915050565b600060ff82169050919050565b610fce81610fb8565b82525050565b6000602082019050610fe96000830184610fc5565b92915050565b600081519050919050565b600082825260208201905092915050565b60005b8381101561102957808201518184015260208101905061100e565b60008484015250505050565b6000601f19601f8301169050919050565b600061105182610fef565b61105b8185610ffa565b935061106b81856020860161100b565b61107481611035565b840191505092915050565b600060208201905081810360008301526110998184611046565b905092915050565b600073ffffffffffffffffffffffffffffffffffffffff82169050919050565b60006110cc826110a1565b9050919050565b6110dc816110c1565b82525050565b60006020820190506110f760008301846110d3565b92915050565b611106816110c1565b811461111157600080fd5b50565b600081359050611123816110fd565b92915050565b6000819050919050565b61113c81611129565b811461114757600080fd5b50565b60008135905061115981611133565b92915050565b60008060006060848603121561117857611177610f4b565b5b600061118686828701610f76565b935050602061119786828701611114565b92505060406111a88682870161114a565b9150509250925092565b6111bb81611129565b82525050565b60006020820190506111d660008301846111b2565b92915050565b600080fd5b7f4e487b7100000000000000000000000000000000000000000000000000000000600052604160045260246000fd5b61121982611035565b810181811067ffffffffffffffff82111715611238576112376111e1565b5b80604052505050565b600061124b610f41565b90506112578282611210565b919050565b600067ffffffffffffffff821115611277576112766111e1565b5b602082029050919050565b600080fd5b600061129a6112958461125c565b611241565b905080602084028301858111156112b4576112b3611282565b5b835b818110156112dd57806112c9888261114a565b8452602084019350506020810190506112b6565b5050509392505050565b600082601f8301126112fc576112fb6111dc565b5b6003611309848285611287565b91505092915050565b6000806080838503121561132957611328610f4b565b5b600061133785828601610f76565b9250506020611348858286016112e7565b9150509250929050565b600081519050919050565b600082825260208201905092915050565b6000819050602082019050919050565b611387816110c1565b82525050565b6000611399838361137e565b60208301905092915050565b6000602082019050919050565b60006113bd82611352565b6113c7818561135d565b93506113d28361136e565b8060005b838110156114035781516113ea888261138d565b97506113f5836113a5565b9250506001810190506113d6565b5085935050505092915050565b6000602082019050818103600083015261142a81846113b2565b905092915050565b61143b81610f55565b82525050565b60008115159050919050565b61145681611441565b82525050565b600061014082019050611472600083018d6110d3565b61147f602083018c6111b2565b61148c604083018b611432565b818103606083015261149e818a611046565b90506114ad6080830189610fc5565b6114ba60a083018861144d565b6114c760c0830187610fc5565b6114d460e0830186610fc5565b6114e26101008301856111b2565b6114f0610120830184611432565b9b9a5050505050505050505050565b6000806040838503121561151657611515610f4b565b5b600061152485828601610f76565b92505060206115358582860161114a565b9150509250929050565b600080fd5b600067ffffffffffffffff82111561155f5761155e6111e1565b5b61156882611035565b9050602081019050919050565b82818337600083830152505050565b600061159761159284611544565b611241565b9050828152602081018484840111156115b3576115b261153f565b5b6115be848285611575565b509392505050565b600082601f8301126115db576115da6111dc565b5b81356115eb848260208601611584565b91505092915050565b6115fd81610fb8565b811461160857600080fd5b50565b60008135905061161a816115f4565b92915050565b6000806000806080858703121561163a57611639610f4b565b5b600085013567ffffffffffffffff81111561165857611657610f50565b5b611664878288016115c6565b94505060206116758782880161160b565b93505060406116868782880161160b565b92505060606116978782880161160b565b91505092959194509250565b60006020820190506116b86000830184611432565b92915050565b7f4e487b7100000000000000000000000000000000000000000000000000000000600052602260045260246000fd5b6000600282049050600182168061170557607f821691505b602082108103611718576117176116be565b5b50919050565b7f496e76616c696420486173680000000000000000000000000000000000000000600082015250565b6000611754600c83610ffa565b915061175f8261171e565b602082019050919050565b6000602082019050818103600083015261178381611747565b9050919050565b7f5661756c74206973206e6f206d6f726520616374697665000000000000000000600082015250565b60006117c0601783610ffa565b91506117cb8261178a565b602082019050919050565b600060208201905081810360008301526117ef816117b3565b9050919050565b7f496e73756666696369656e742066756e647320746f206a6f696e20746869732060008201527f7661756c74000000000000000000000000000000000000000000000000000000602082015250565b6000611852602583610ffa565b915061185d826117f6565b604082019050919050565b6000602082019050818103600083015261188181611845565b9050919050565b7f5661756c7420706c61796572206c696d69742065786365656465640000000000600082015250565b60006118be601b83610ffa565b91506118c982611888565b602082019050919050565b600060208201905081810360008301526118ed816118b1565b9050919050565b60006040820190506119096000830185611432565b61191660208301846111b2565b9392505050565b60008160f81b9050919050565b60006119358261191d565b9050919050565b61194d61194882610fb8565b61192a565b82525050565b600081905092915050565b600061196982610fef565b6119738185611953565b935061198381856020860161100b565b80840191505092915050565b60008160601b9050919050565b60006119a78261198f565b9050919050565b60006119b98261199c565b9050919050565b6119d16119cc826110c1565b6119ae565b82525050565b60006119e3828661193c565b6001820191506119f3828561195e565b91506119ff82846119c0565b601482019150819050949350505050565b6000611a1c828561195e565b9150611a2882846119c0565b6014820191508190509392505050565b60008190508160005260206000209050919050565b60006020601f8301049050919050565b600082821b905092915050565b600060088302611a9a7fffffffffffffffffffffffffffffffffffffffffffffffffffffffffffffffff82611a5d565b611aa48683611a5d565b95508019841693508086168417925050509392505050565b6000819050919050565b6000611ae1611adc611ad784611129565b611abc565b611129565b9050919050565b6000819050919050565b611afb83611ac6565b611b0f611b0782611ae8565b848454611a6a565b825550505050565b600090565b611b24611b17565b611b2f818484611af2565b505050565b5b81811015611b5357611b48600082611b1c565b600181019050611b35565b5050565b601f821115611b9857611b6981611a38565b611b7284611a4d565b81016020851015611b81578190505b611b95611b8d85611a4d565b830182611b34565b50505b505050565b600082821c905092915050565b6000611bbb60001984600802611b9d565b1980831691505092915050565b6000611bd48383611baa565b9150826002028217905092915050565b611bed82610fef565b67ffffffffffffffff811115611c0657611c056111e1565b5b611c1082546116ed565b611c1b828285611b57565b600060209050601f831160018114611c4e5760008415611c3c578287015190505b611c468582611bc8565b865550611cae565b601f198416611c5c86611a38565b60005b82811015611c8457848901518255600182019150602085019450602081019050611c5f565b86831015611ca15784890151611c9d601f891682611baa565b8355505b6001600288020188555050505b505050505050565b7f4e487b7100000000000000000000000000000000000000000000000000000000600052601160045260246000fd5b6000611cf082610fb8565b915060ff8203611d0357611d02611cb6565b5b600182019050919050565b7f5661756c74206973207374696c6c206163746976650000000000000000000000600082015250565b6000611d44601583610ffa565b9150611d4f82611d0e565b602082019050919050565b60006020820190508181036000830152611d7381611d37565b9050919050565b7f4f6e6c79207468652041646d696e2043616e204f70656e20546865207661756c60008201527f7400000000000000000000000000000000000000000000000000000000000000602082015250565b6000611dd6602183610ffa565b9150611de182611d7a565b604082019050919050565b60006020820190508181036000830152611e0581611dc9565b9050919050565b6000611e1782611129565b9150611e2283611129565b9250828202611e3081611129565b91508282048414831517611e4757611e46611cb6565b5b509291505056fea26469706673582212204935a13b2aa2fd4df7144d545e9f35e36ee0d32d0387ad327f10ca6a099e0ef464736f6c634300081c0033",
  "linkReferences": {},
  "deployedLinkReferences": {}
}