{
  "_format": "hh-sol-artifact-1",
  "contractName": "Vault",
  "sourceName": "contracts/Vault.sol",
  "abi": [
    {
      "anonymous": false,
      "inputs": [
        {
          "indexed": false,
          "internalType": "bytes32",
          "name": "vaultHash",
          "type": "bytes32"
        },
        {
          "indexed": true,
          "internalType": "address",
          "name": "player",
          "type": "address"
        },
        {
          "indexed": false,
          "internalType": "uint256",
          "name": "amount",
          "type": "uint256"
        }
      ],
      "name": "PlayerJoined",
      "type": "event"
    },
    {
      "anonymous": false,
      "inputs": [
        {
          "indexed": false,
          "internalType": "bytes32",
          "name": "vaultHash",
          "type": "bytes32"
        },
        {
          "indexed": true,
          "internalType": "address",
          "name": "admin",
          "type": "address"
        }
      ],
      "name": "VaultCreated",
      "type": "event"
    },
    {
      "anonymous": false,
      "inputs": [
        {
          "indexed": false,
          "internalType": "bytes32",
          "name": "vaultHash",
          "type": "bytes32"
        }
      ],
      "name": "VaultOpened",
      "type": "event"
    },
    {
      "inputs": [
        {
          "internalType": "bytes32",
          "name": "_hash",
          "type": "bytes32"
        }
      ],
      "name": "getVaultPlayers",
      "outputs": [
        {
          "internalType": "address[]",
          "name": "",
          "type": "address[]"
        }
      ],
      "stateMutability": "view",
      "type": "function"
    },
    {
      "inputs": [
        {
          "internalType": "bytes32",
          "name": "_hash",
          "type": "bytes32"
        },
        {
          "internalType": "uint256[3]",
          "name": "_values",
          "type": "uint256[3]"
        }
      ],
      "name": "joinVault",
      "outputs": [],
      "stateMutability": "payable",
      "type": "function"
    },
    {
      "inputs": [
        {
          "internalType": "bytes32",
          "name": "_hash",
          "type": "bytes32"
        }
      ],
      "name": "openVault",
      "outputs": [],
      "stateMutability": "nonpayable",
      "type": "function"
    },
    {
      "inputs": [
        {
          "internalType": "bytes32",
          "name": "",
          "type": "bytes32"
        },
        {
          "internalType": "address",
          "name": "",
          "type": "address"
        },
        {
          "internalType": "uint256",
          "name": "",
          "type": "uint256"
        }
      ],
      "name": "playerValues",
      "outputs": [
        {
          "internalType": "uint256",
          "name": "",
          "type": "uint256"
        }
      ],
      "stateMutability": "view",
      "type": "function"
    },
    {
      "inputs": [
        {
          "internalType": "string",
          "name": "_vaultName",
          "type": "string"
        },
        {
          "internalType": "uint8",
          "name": "_players",
          "type": "uint8"
        },
        {
          "internalType": "uint8",
          "name": "_activeDuration",
          "type": "uint8"
        },
        {
          "internalType": "uint8",
          "name": "_vaultValue",
          "type": "uint8"
        }
      ],
      "name": "startGameAdmin",
      "outputs": [
        {
          "internalType": "bytes32",
          "name": "",
          "type": "bytes32"
        }
      ],
      "stateMutability": "nonpayable",
      "type": "function"
    },
    {
      "inputs": [],
      "name": "vaultId",
      "outputs": [
        {
          "internalType": "uint8",
          "name": "",
          "type": "uint8"
        }
      ],
      "stateMutability": "view",
      "type": "function"
    },
    {
      "inputs": [
        {
          "internalType": "bytes32",
          "name": "",
          "type": "bytes32"
        },
        {
          "internalType": "uint256",
          "name": "",
          "type": "uint256"
        }
      ],
      "name": "vaultPlayers",
      "outputs": [
        {
          "internalType": "address",
          "name": "",
          "type": "address"
        }
      ],
      "stateMutability": "view",
      "type": "function"
    },
    {
      "inputs": [
        {
          "internalType": "bytes32",
          "name": "",
          "type": "bytes32"
        }
      ],
      "name": "vaults",
      "outputs": [
        {
          "internalType": "address",
          "name": "vaultAdmin",
          "type": "address"
        },
        {
          "internalType": "uint256",
          "name": "vaultId",
          "type": "uint256"
        },
        {
          "internalType": "bytes32",
          "name": "vaultKey",
          "type": "bytes32"
        },
        {
          "internalType": "string",
          "name": "vaultName",
          "type": "string"
        },
        {
          "internalType": "uint8",
          "name": "players",
          "type": "uint8"
        },
        {
          "internalType": "bool",
          "name": "isActive",
          "type": "bool"
        },
        {
          "internalType": "uint8",
          "name": "vaultValue",
          "type": "uint8"
        },
        {
          "internalType": "uint8",
          "name": "activeDuration",
          "type": "uint8"
        },
        {
          "internalType": "uint256",
          "name": "startTime",
          "type": "uint256"
        },
        {
          "internalType": "bytes32",
          "name": "vaultHash",
          "type": "bytes32"
        }
      ],
      "stateMutability": "view",
      "type": "function"
    }
  ],
  "bytecode": "0x60806040526001600360006101000a81548160ff021916908360ff160217905550348015602b57600080fd5b50611cf48061003b6000396000f3fe60806040526004361061007b5760003560e01c8063cca23bf21161004e578063cca23bf214610141578063eb0f448914610187578063f345e6d0146101c4578063fab9bd5e146102015761007b565b806333194c0a146100805780638fec5315146100ab578063a22ff2d3146100e8578063c6fd054214610104575b600080fd5b34801561008c57600080fd5b5061009561022a565b6040516100a29190610d62565b60405180910390f35b3480156100b757600080fd5b506100d260048036038101906100cd9190610e5b565b61023d565b6040516100df9190610ebd565b60405180910390f35b61010260048036038101906100fd919061101f565b610272565b005b34801561011057600080fd5b5061012b6004803603810190610126919061105f565b610564565b604051610138919061114a565b60405180910390f35b34801561014d57600080fd5b506101686004803603810190610163919061105f565b610605565b60405161017e9a99989796959493929190611224565b60405180910390f35b34801561019357600080fd5b506101ae60048036038101906101a991906112c7565b610735565b6040516101bb9190611307565b60405180910390f35b3480156101d057600080fd5b506101eb60048036038101906101e69190611403565b610783565b6040516101f89190611486565b60405180910390f35b34801561020d57600080fd5b506102286004803603810190610223919061105f565b610a1c565b005b600360009054906101000a900460ff1681565b6002602052826000526040600020602052816000526040600020816003811061026557600080fd5b0160009250925050505481565b60008060008481526020019081526020016000209050828160060154146102ce576040517f08c379a00000000000000000000000000000000000000000000000000000000081526004016102c5906114ed565b60405180910390fd5b8060040160019054906101000a900460ff1661031f576040517f08c379a000000000000000000000000000000000000000000000000000000000815260040161031690611559565b60405180910390fd5b8060040160029054906101000a900460ff1660ff16341015610376576040517f08c379a000000000000000000000000000000000000000000000000000000000815260040161036d906115eb565b60405180910390fd5b60016000848152602001908152602001600020339080600181540180825580915050600190039060005260206000200160009091909190916101000a81548173ffffffffffffffffffffffffffffffffffffffff021916908373ffffffffffffffffffffffffffffffffffffffff1602179055508060040160009054906101000a900460ff1660ff1660016000858152602001908152602001600020805490501115610457576040517f08c379a000000000000000000000000000000000000000000000000000000000815260040161044e90611657565b60405180910390fd5b816002600085815260200190815260200160002060003373ffffffffffffffffffffffffffffffffffffffff1673ffffffffffffffffffffffffffffffffffffffff1681526020019081526020016000209060036104b6929190610ce9565b508060040160009054906101000a900460ff1660ff1660016000858152602001908152602001600020805490500361050f5760008160040160016101000a81548160ff0219169083151502179055504281600501819055505b3373ffffffffffffffffffffffffffffffffffffffff167f65525cf08411b7a61d237681a43890956ad2e2ede88afd947f58eb4158c37f958434604051610557929190611677565b60405180910390a2505050565b6060600160008381526020019081526020016000208054806020026020016040519081016040528092919081815260200182805480156105f957602002820191906000526020600020905b8160009054906101000a900473ffffffffffffffffffffffffffffffffffffffff1673ffffffffffffffffffffffffffffffffffffffff16815260200190600101908083116105af575b50505050509050919050565b60006020528060005260406000206000915090508060000160009054906101000a900473ffffffffffffffffffffffffffffffffffffffff169080600101549080600201549080600301805461065a906116cf565b80601f0160208091040260200160405190810160405280929190818152602001828054610686906116cf565b80156106d35780601f106106a8576101008083540402835291602001916106d3565b820191906000526020600020905b8154815290600101906020018083116106b657829003601f168201915b5050505050908060040160009054906101000a900460ff16908060040160019054906101000a900460ff16908060040160029054906101000a900460ff16908060040160039054906101000a900460ff1690806005015490806006015490508a565b6001602052816000526040600020818154811061075157600080fd5b906000526020600020016000915091509054906101000a900473ffffffffffffffffffffffffffffffffffffffff1681565b600080600360009054906101000a900460ff1686336040516020016107aa939291906117ba565b604051602081830303815290604052805190602001209050600086336040516020016107d79291906117f3565b6040516020818303038152906040528051906020012090506040518061014001604052803373ffffffffffffffffffffffffffffffffffffffff168152602001600360009054906101000a900460ff1660ff1681526020018381526020018881526020018760ff1681526020016001151581526020018560ff1681526020018660ff168152602001600081526020018281525060008083815260200190815260200160002060008201518160000160006101000a81548173ffffffffffffffffffffffffffffffffffffffff021916908373ffffffffffffffffffffffffffffffffffffffff160217905550602082015181600101556040820151816002015560608201518160030190816108ec91906119c7565b5060808201518160040160006101000a81548160ff021916908360ff16021790555060a08201518160040160016101000a81548160ff02191690831515021790555060c08201518160040160026101000a81548160ff021916908360ff16021790555060e08201518160040160036101000a81548160ff021916908360ff160217905550610100820151816005015561012082015181600601559050503373ffffffffffffffffffffffffffffffffffffffff167ff4b1ceb1417c85288ccfc33dc69a1585ee094a2357478477269745de0f29b4e5826040516109cf9190611486565b60405180910390a26003600081819054906101000a900460ff16809291906109f690611ac8565b91906101000a81548160ff021916908360ff160217905550508092505050949350505050565b600080600083815260200190815260200160002090508060040160019054906101000a900460ff1615610a84576040517f08c379a0000000000000000000000000000000000000000000000000000000008152600401610a7b90611b3d565b60405180910390fd5b3373ffffffffffffffffffffffffffffffffffffffff168160000160009054906101000a900473ffffffffffffffffffffffffffffffffffffffff1673ffffffffffffffffffffffffffffffffffffffff1614610b16576040517f08c379a0000000000000000000000000000000000000000000000000000000008152600401610b0d90611bcf565b60405180910390fd5b8060040160039054906101000a900460ff1660ff168160050154610b3a9190611bef565b421015610b7c576040517f08c379a0000000000000000000000000000000000000000000000000000000008152600401610b7390611c6f565b60405180910390fd5b600060016000848152602001908152602001600020805480602002602001604051908101604052809291908181526020018280548015610c1157602002820191906000526020600020905b8160009054906101000a900473ffffffffffffffffffffffffffffffffffffffff1673ffffffffffffffffffffffffffffffffffffffff1681526020019060010190808311610bc7575b5050505050905060008260040160029054906101000a900460ff1660ff16905060005b8251811015610cab57828181518110610c5057610c4f611c8f565b5b602002602001015173ffffffffffffffffffffffffffffffffffffffff166108fc839081150290604051600060405180830381858888f19350505050158015610c9d573d6000803e3d6000fd5b508080600101915050610c34565b507f31b0aa36783855ee03b759334d419a25ead53cf249ce84862eec1138dcefe52584604051610cdb9190611486565b60405180910390a150505050565b8260038101928215610d18579160200282015b82811115610d17578251825591602001919060010190610cfc565b5b509050610d259190610d29565b5090565b5b80821115610d42576000816000905550600101610d2a565b5090565b600060ff82169050919050565b610d5c81610d46565b82525050565b6000602082019050610d776000830184610d53565b92915050565b6000604051905090565b600080fd5b600080fd5b6000819050919050565b610da481610d91565b8114610daf57600080fd5b50565b600081359050610dc181610d9b565b92915050565b600073ffffffffffffffffffffffffffffffffffffffff82169050919050565b6000610df282610dc7565b9050919050565b610e0281610de7565b8114610e0d57600080fd5b50565b600081359050610e1f81610df9565b92915050565b6000819050919050565b610e3881610e25565b8114610e4357600080fd5b50565b600081359050610e5581610e2f565b92915050565b600080600060608486031215610e7457610e73610d87565b5b6000610e8286828701610db2565b9350506020610e9386828701610e10565b9250506040610ea486828701610e46565b9150509250925092565b610eb781610e25565b82525050565b6000602082019050610ed26000830184610eae565b92915050565b600080fd5b6000601f19601f8301169050919050565b7f4e487b7100000000000000000000000000000000000000000000000000000000600052604160045260246000fd5b610f2682610edd565b810181811067ffffffffffffffff82111715610f4557610f44610eee565b5b80604052505050565b6000610f58610d7d565b9050610f648282610f1d565b919050565b600067ffffffffffffffff821115610f8457610f83610eee565b5b602082029050919050565b600080fd5b6000610fa7610fa284610f69565b610f4e565b90508060208402830185811115610fc157610fc0610f8f565b5b835b81811015610fea5780610fd68882610e46565b845260208401935050602081019050610fc3565b5050509392505050565b600082601f83011261100957611008610ed8565b5b6003611016848285610f94565b91505092915050565b6000806080838503121561103657611035610d87565b5b600061104485828601610db2565b925050602061105585828601610ff4565b9150509250929050565b60006020828403121561107557611074610d87565b5b600061108384828501610db2565b91505092915050565b600081519050919050565b600082825260208201905092915050565b6000819050602082019050919050565b6110c181610de7565b82525050565b60006110d383836110b8565b60208301905092915050565b6000602082019050919050565b60006110f78261108c565b6111018185611097565b935061110c836110a8565b8060005b8381101561113d57815161112488826110c7565b975061112f836110df565b925050600181019050611110565b5085935050505092915050565b6000602082019050818103600083015261116481846110ec565b905092915050565b61117581610de7565b82525050565b61118481610d91565b82525050565b600081519050919050565b600082825260208201905092915050565b60005b838110156111c45780820151818401526020810190506111a9565b60008484015250505050565b60006111db8261118a565b6111e58185611195565b93506111f58185602086016111a6565b6111fe81610edd565b840191505092915050565b60008115159050919050565b61121e81611209565b82525050565b60006101408201905061123a600083018d61116c565b611247602083018c610eae565b611254604083018b61117b565b8181036060830152611266818a6111d0565b90506112756080830189610d53565b61128260a0830188611215565b61128f60c0830187610d53565b61129c60e0830186610d53565b6112aa610100830185610eae565b6112b861012083018461117b565b9b9a5050505050505050505050565b600080604083850312156112de576112dd610d87565b5b60006112ec85828601610db2565b92505060206112fd85828601610e46565b9150509250929050565b600060208201905061131c600083018461116c565b92915050565b600080fd5b600067ffffffffffffffff82111561134257611341610eee565b5b61134b82610edd565b9050602081019050919050565b82818337600083830152505050565b600061137a61137584611327565b610f4e565b90508281526020810184848401111561139657611395611322565b5b6113a1848285611358565b509392505050565b600082601f8301126113be576113bd610ed8565b5b81356113ce848260208601611367565b91505092915050565b6113e081610d46565b81146113eb57600080fd5b50565b6000813590506113fd816113d7565b92915050565b6000806000806080858703121561141d5761141c610d87565b5b600085013567ffffffffffffffff81111561143b5761143a610d8c565b5b611447878288016113a9565b9450506020611458878288016113ee565b9350506040611469878288016113ee565b925050606061147a878288016113ee565b91505092959194509250565b600060208201905061149b600083018461117b565b92915050565b7f496e76616c696420486173680000000000000000000000000000000000000000600082015250565b60006114d7600c83611195565b91506114e2826114a1565b602082019050919050565b60006020820190508181036000830152611506816114ca565b9050919050565b7f5661756c74206973206e6f206d6f726520616374697665000000000000000000600082015250565b6000611543601783611195565b915061154e8261150d565b602082019050919050565b6000602082019050818103600083015261157281611536565b9050919050565b7f496e73756666696369656e742066756e647320746f206a6f696e20746869732060008201527f7661756c74000000000000000000000000000000000000000000000000000000602082015250565b60006115d5602583611195565b91506115e082611579565b604082019050919050565b60006020820190508181036000830152611604816115c8565b9050919050565b7f5661756c7420706c61796572206c696d69742065786365656465640000000000600082015250565b6000611641601b83611195565b915061164c8261160b565b602082019050919050565b6000602082019050818103600083015261167081611634565b9050919050565b600060408201905061168c600083018561117b565b6116996020830184610eae565b9392505050565b7f4e487b7100000000000000000000000000000000000000000000000000000000600052602260045260246000fd5b600060028204905060018216806116e757607f821691505b6020821081036116fa576116f96116a0565b5b50919050565b60008160f81b9050919050565b600061171882611700565b9050919050565b61173061172b82610d46565b61170d565b82525050565b600081905092915050565b600061174c8261118a565b6117568185611736565b93506117668185602086016111a6565b80840191505092915050565b60008160601b9050919050565b600061178a82611772565b9050919050565b600061179c8261177f565b9050919050565b6117b46117af82610de7565b611791565b82525050565b60006117c6828661171f565b6001820191506117d68285611741565b91506117e282846117a3565b601482019150819050949350505050565b60006117ff8285611741565b915061180b82846117a3565b6014820191508190509392505050565b60008190508160005260206000209050919050565b60006020601f8301049050919050565b600082821b905092915050565b60006008830261187d7fffffffffffffffffffffffffffffffffffffffffffffffffffffffffffffffff82611840565b6118878683611840565b95508019841693508086168417925050509392505050565b6000819050919050565b60006118c46118bf6118ba84610e25565b61189f565b610e25565b9050919050565b6000819050919050565b6118de836118a9565b6118f26118ea826118cb565b84845461184d565b825550505050565b600090565b6119076118fa565b6119128184846118d5565b505050565b5b818110156119365761192b6000826118ff565b600181019050611918565b5050565b601f82111561197b5761194c8161181b565b61195584611830565b81016020851015611964578190505b61197861197085611830565b830182611917565b50505b505050565b600082821c905092915050565b600061199e60001984600802611980565b1980831691505092915050565b60006119b7838361198d565b9150826002028217905092915050565b6119d08261118a565b67ffffffffffffffff8111156119e9576119e8610eee565b5b6119f382546116cf565b6119fe82828561193a565b600060209050601f831160018114611a315760008415611a1f578287015190505b611a2985826119ab565b865550611a91565b601f198416611a3f8661181b565b60005b82811015611a6757848901518255600182019150602085019450602081019050611a42565b86831015611a845784890151611a80601f89168261198d565b8355505b6001600288020188555050505b505050505050565b7f4e487b7100000000000000000000000000000000000000000000000000000000600052601160045260246000fd5b6000611ad382610d46565b915060ff8203611ae657611ae5611a99565b5b600182019050919050565b7f5661756c74206973207374696c6c206163746976650000000000000000000000600082015250565b6000611b27601583611195565b9150611b3282611af1565b602082019050919050565b60006020820190508181036000830152611b5681611b1a565b9050919050565b7f4f6e6c79207468652041646d696e2043616e204f70656e20546865207661756c60008201527f7400000000000000000000000000000000000000000000000000000000000000602082015250565b6000611bb9602183611195565b9150611bc482611b5d565b604082019050919050565b60006020820190508181036000830152611be881611bac565b9050919050565b6000611bfa82610e25565b9150611c0583610e25565b9250828201905080821115611c1d57611c1c611a99565b5b92915050565b7f5661756c74206475726174696f6e20686173206e6f7420656e64656400000000600082015250565b6000611c59601c83611195565b9150611c6482611c23565b602082019050919050565b60006020820190508181036000830152611c8881611c4c565b9050919050565b7f4e487b7100000000000000000000000000000000000000000000000000000000600052603260045260246000fdfea2646970667358221220193f577d1be9c246fc4a57969dfab66f397777aa7e8b1e66ad7107004fccf95464736f6c634300081c0033",
  "linkReferences": {},
  "deployedLinkReferences": {}
}