{
    "_format": "hh-sol-artifact-1",
    "contractName": "Vault",
    "sourceName": "contracts/Vault.sol",
    "abi": [
        {
            "anonymous": false,
            "inputs": [
                {
                    "indexed": false,
                    "internalType": "bytes32",
                    "name": "vaultHash",
                    "type": "bytes32"
                },
                {
                    "indexed": true,
                    "internalType": "address",
                    "name": "player",
                    "type": "address"
                },
                {
                    "indexed": false,
                    "internalType": "uint256",
                    "name": "amount",
                    "type": "uint256"
                }
            ],
            "name": "PlayerJoined",
            "type": "event"
        },
        {
            "anonymous": false,
            "inputs": [
                {
                    "indexed": false,
                    "internalType": "bytes32",
                    "name": "vaultHash",
                    "type": "bytes32"
                },
                {
                    "indexed": true,
                    "internalType": "address",
                    "name": "admin",
                    "type": "address"
                }
            ],
            "name": "VaultCreated",
            "type": "event"
        },
        {
            "anonymous": false,
            "inputs": [
                {
                    "indexed": false,
                    "internalType": "bytes32",
                    "name": "vaultHash",
                    "type": "bytes32"
                }
            ],
            "name": "VaultOpened",
            "type": "event"
        },
        {
            "inputs": [
                {
                    "internalType": "bytes32",
                    "name": "_hash",
                    "type": "bytes32"
                }
            ],
            "name": "getVaultPlayers",
            "outputs": [
                {
                    "internalType": "address[]",
                    "name": "",
                    "type": "address[]"
                }
            ],
            "stateMutability": "view",
            "type": "function"
        },
        {
            "inputs": [
                {
                    "internalType": "bytes32",
                    "name": "_hash",
                    "type": "bytes32"
                }
            ],
            "name": "joinVault",
            "outputs": [],
            "stateMutability": "payable",
            "type": "function"
        },
        {
            "inputs": [
                {
                    "internalType": "bytes32",
                    "name": "_hash",
                    "type": "bytes32"
                }
            ],
            "name": "openVault",
            "outputs": [],
            "stateMutability": "nonpayable",
            "type": "function"
        },
        {
            "inputs": [
                {
                    "internalType": "string",
                    "name": "_vaultName",
                    "type": "string"
                },
                {
                    "internalType": "uint8",
                    "name": "_players",
                    "type": "uint8"
                },
                {
                    "internalType": "uint8",
                    "name": "_activeDuration",
                    "type": "uint8"
                },
                {
                    "internalType": "uint8",
                    "name": "_vaultValue",
                    "type": "uint8"
                }
            ],
            "name": "startGameAdmin",
            "outputs": [
                {
                    "internalType": "bytes32",
                    "name": "",
                    "type": "bytes32"
                }
            ],
            "stateMutability": "nonpayable",
            "type": "function"
        },
        {
            "inputs": [],
            "name": "vaultId",
            "outputs": [
                {
                    "internalType": "uint8",
                    "name": "",
                    "type": "uint8"
                }
            ],
            "stateMutability": "view",
            "type": "function"
        },
        {
            "inputs": [
                {
                    "internalType": "bytes32",
                    "name": "",
                    "type": "bytes32"
                },
                {
                    "internalType": "uint256",
                    "name": "",
                    "type": "uint256"
                }
            ],
            "name": "vaultPlayers",
            "outputs": [
                {
                    "internalType": "address",
                    "name": "",
                    "type": "address"
                }
            ],
            "stateMutability": "view",
            "type": "function"
        },
        {
            "inputs": [
                {
                    "internalType": "bytes32",
                    "name": "",
                    "type": "bytes32"
                }
            ],
            "name": "vaults",
            "outputs": [
                {
                    "internalType": "address",
                    "name": "vaultAdmin",
                    "type": "address"
                },
                {
                    "internalType": "uint256",
                    "name": "vaultId",
                    "type": "uint256"
                },
                {
                    "internalType": "bytes32",
                    "name": "vaultKey",
                    "type": "bytes32"
                },
                {
                    "internalType": "string",
                    "name": "vaultName",
                    "type": "string"
                },
                {
                    "internalType": "uint8",
                    "name": "players",
                    "type": "uint8"
                },
                {
                    "internalType": "bool",
                    "name": "isActive",
                    "type": "bool"
                },
                {
                    "internalType": "uint8",
                    "name": "vaultValue",
                    "type": "uint8"
                },
                {
                    "internalType": "uint8",
                    "name": "activeDuration",
                    "type": "uint8"
                },
                {
                    "internalType": "uint256",
                    "name": "startTime",
                    "type": "uint256"
                },
                {
                    "internalType": "bytes32",
                    "name": "vaultHash",
                    "type": "bytes32"
                }
            ],
            "stateMutability": "view",
            "type": "function"
        }
    ],
    "bytecode": "0x60806040526001600260006101000a81548160ff021916908360ff160217905550348015602b57600080fd5b5061197e8061003b6000396000f3fe6080604052600436106100705760003560e01c8063cca23bf21161004e578063cca23bf2146100f9578063eb0f44891461013f578063f345e6d01461017c578063fab9bd5e146101b957610070565b806333194c0a14610075578063b6cd45ea146100a0578063c6fd0542146100bc575b600080fd5b34801561008157600080fd5b5061008a6101e2565b6040516100979190610bce565b60405180910390f35b6100ba60048036038101906100b59190610c33565b6101f5565b005b3480156100c857600080fd5b506100e360048036038101906100de9190610c33565b61040c565b6040516100f09190610d50565b60405180910390f35b34801561010557600080fd5b50610120600480360381019061011b9190610c33565b6104ad565b6040516101369a99989796959493929190610e54565b60405180910390f35b34801561014b57600080fd5b5061016660048036038101906101619190610f23565b6105dd565b6040516101739190610f63565b60405180910390f35b34801561018857600080fd5b506101a3600480360381019061019e91906110df565b61062b565b6040516101b09190611162565b60405180910390f35b3480156101c557600080fd5b506101e060048036038101906101db9190610c33565b61096b565b005b600260009054906101000a900460ff1681565b6000806000838152602001908152602001600020905081816006015414610251576040517f08c379a0000000000000000000000000000000000000000000000000000000008152600401610248906111c9565b60405180910390fd5b8060040160019054906101000a900460ff166102a2576040517f08c379a000000000000000000000000000000000000000000000000000000000815260040161029990611235565b60405180910390fd5b8060040160029054906101000a900460ff1660ff163410156102f9576040517f08c379a00000000000000000000000000000000000000000000000000000000081526004016102f0906112c7565b60405180910390fd5b60016000838152602001908152602001600020339080600181540180825580915050600190039060005260206000200160009091909190916101000a81548173ffffffffffffffffffffffffffffffffffffffff021916908373ffffffffffffffffffffffffffffffffffffffff1602179055508060040160009054906101000a900460ff1660ff1661038b8361040c565b51036103b85760008160040160016101000a81548160ff0219169083151502179055504281600501819055505b3373ffffffffffffffffffffffffffffffffffffffff167f65525cf08411b7a61d237681a43890956ad2e2ede88afd947f58eb4158c37f9583346040516104009291906112e7565b60405180910390a25050565b6060600160008381526020019081526020016000208054806020026020016040519081016040528092919081815260200182805480156104a157602002820191906000526020600020905b8160009054906101000a900473ffffffffffffffffffffffffffffffffffffffff1673ffffffffffffffffffffffffffffffffffffffff1681526020019060010190808311610457575b50505050509050919050565b60006020528060005260406000206000915090508060000160009054906101000a900473ffffffffffffffffffffffffffffffffffffffff16908060010154908060020154908060030180546105029061133f565b80601f016020809104026020016040519081016040528092919081815260200182805461052e9061133f565b801561057b5780601f106105505761010080835404028352916020019161057b565b820191906000526020600020905b81548152906001019060200180831161055e57829003601f168201915b5050505050908060040160009054906101000a900460ff16908060040160019054906101000a900460ff16908060040160029054906101000a900460ff16908060040160039054906101000a900460ff1690806005015490806006015490508a565b600160205281600052604060002081815481106105f957600080fd5b906000526020600020016000915091509054906101000a900473ffffffffffffffffffffffffffffffffffffffff1681565b600080600260009054906101000a900460ff1686336040516020016106529392919061142a565b6040516020818303038152906040528051906020012090506000602067ffffffffffffffff81111561068757610686610f88565b5b6040519080825280601f01601f1916602001820160405280156106b95781602001600182028036833780820191505090505b50905060005b600681101561072e578281602081106106db576106da611463565b5b1a60f81b8282815181106106f2576106f1611463565b5b60200101907effffffffffffffffffffffffffffffffffffffffffffffffffffffffffffff1916908160001a90535080806001019150506106bf565b5060008161073b906114cf565b90506040518061014001604052803373ffffffffffffffffffffffffffffffffffffffff168152602001600260009054906101000a900460ff1660ff1681526020018481526020018981526020018860ff1681526020016001151581526020018660ff1681526020018760ff168152602001600081526020018281525060008083815260200190815260200160002060008201518160000160006101000a81548173ffffffffffffffffffffffffffffffffffffffff021916908373ffffffffffffffffffffffffffffffffffffffff1602179055506020820151816001015560408201518160020155606082015181600301908161083a91906116d5565b5060808201518160040160006101000a81548160ff021916908360ff16021790555060a08201518160040160016101000a81548160ff02191690831515021790555060c08201518160040160026101000a81548160ff021916908360ff16021790555060e08201518160040160036101000a81548160ff021916908360ff160217905550610100820151816005015561012082015181600601559050503373ffffffffffffffffffffffffffffffffffffffff167ff4b1ceb1417c85288ccfc33dc69a1585ee094a2357478477269745de0f29b4e58260405161091d9190611162565b60405180910390a26002600081819054906101000a900460ff1680929190610944906117d6565b91906101000a81548160ff021916908360ff16021790555050809350505050949350505050565b600080600083815260200190815260200160002090508060040160019054906101000a900460ff16156109d3576040517f08c379a00000000000000000000000000000000000000000000000000000000081526004016109ca9061184b565b60405180910390fd5b603c8160040160039054906101000a900460ff166109f1919061186b565b60ff168160050154610a0391906118a8565b421015610a45576040517f08c379a0000000000000000000000000000000000000000000000000000000008152600401610a3c90611928565b60405180910390fd5b600060016000848152602001908152602001600020805480602002602001604051908101604052809291908181526020018280548015610ada57602002820191906000526020600020905b8160009054906101000a900473ffffffffffffffffffffffffffffffffffffffff1673ffffffffffffffffffffffffffffffffffffffff1681526020019060010190808311610a90575b5050505050905060008260040160029054906101000a900460ff1660ff16905060005b8251811015610b7457828181518110610b1957610b18611463565b5b602002602001015173ffffffffffffffffffffffffffffffffffffffff166108fc839081150290604051600060405180830381858888f19350505050158015610b66573d6000803e3d6000fd5b508080600101915050610afd565b507f31b0aa36783855ee03b759334d419a25ead53cf249ce84862eec1138dcefe52584604051610ba49190611162565b60405180910390a150505050565b600060ff82169050919050565b610bc881610bb2565b82525050565b6000602082019050610be36000830184610bbf565b92915050565b6000604051905090565b600080fd5b600080fd5b6000819050919050565b610c1081610bfd565b8114610c1b57600080fd5b50565b600081359050610c2d81610c07565b92915050565b600060208284031215610c4957610c48610bf3565b5b6000610c5784828501610c1e565b91505092915050565b600081519050919050565b600082825260208201905092915050565b6000819050602082019050919050565b600073ffffffffffffffffffffffffffffffffffffffff82169050919050565b6000610cb782610c8c565b9050919050565b610cc781610cac565b82525050565b6000610cd98383610cbe565b60208301905092915050565b6000602082019050919050565b6000610cfd82610c60565b610d078185610c6b565b9350610d1283610c7c565b8060005b83811015610d43578151610d2a8882610ccd565b9750610d3583610ce5565b925050600181019050610d16565b5085935050505092915050565b60006020820190508181036000830152610d6a8184610cf2565b905092915050565b610d7b81610cac565b82525050565b6000819050919050565b610d9481610d81565b82525050565b610da381610bfd565b82525050565b600081519050919050565b600082825260208201905092915050565b60005b83811015610de3578082015181840152602081019050610dc8565b60008484015250505050565b6000601f19601f8301169050919050565b6000610e0b82610da9565b610e158185610db4565b9350610e25818560208601610dc5565b610e2e81610def565b840191505092915050565b60008115159050919050565b610e4e81610e39565b82525050565b600061014082019050610e6a600083018d610d72565b610e77602083018c610d8b565b610e84604083018b610d9a565b8181036060830152610e96818a610e00565b9050610ea56080830189610bbf565b610eb260a0830188610e45565b610ebf60c0830187610bbf565b610ecc60e0830186610bbf565b610eda610100830185610d8b565b610ee8610120830184610d9a565b9b9a5050505050505050505050565b610f0081610d81565b8114610f0b57600080fd5b50565b600081359050610f1d81610ef7565b92915050565b60008060408385031215610f3a57610f39610bf3565b5b6000610f4885828601610c1e565b9250506020610f5985828601610f0e565b9150509250929050565b6000602082019050610f786000830184610d72565b92915050565b600080fd5b600080fd5b7f4e487b7100000000000000000000000000000000000000000000000000000000600052604160045260246000fd5b610fc082610def565b810181811067ffffffffffffffff82111715610fdf57610fde610f88565b5b80604052505050565b6000610ff2610be9565b9050610ffe8282610fb7565b919050565b600067ffffffffffffffff82111561101e5761101d610f88565b5b61102782610def565b9050602081019050919050565b82818337600083830152505050565b600061105661105184611003565b610fe8565b90508281526020810184848401111561107257611071610f83565b5b61107d848285611034565b509392505050565b600082601f83011261109a57611099610f7e565b5b81356110aa848260208601611043565b91505092915050565b6110bc81610bb2565b81146110c757600080fd5b50565b6000813590506110d9816110b3565b92915050565b600080600080608085870312156110f9576110f8610bf3565b5b600085013567ffffffffffffffff81111561111757611116610bf8565b5b61112387828801611085565b9450506020611134878288016110ca565b9350506040611145878288016110ca565b9250506060611156878288016110ca565b91505092959194509250565b60006020820190506111776000830184610d9a565b92915050565b7f496e76616c696420486173680000000000000000000000000000000000000000600082015250565b60006111b3600c83610db4565b91506111be8261117d565b602082019050919050565b600060208201905081810360008301526111e2816111a6565b9050919050565b7f5661756c74206973206e6f206d6f726520616374697665000000000000000000600082015250565b600061121f601783610db4565b915061122a826111e9565b602082019050919050565b6000602082019050818103600083015261124e81611212565b9050919050565b7f496e73756666696369656e742066756e647320746f206a6f696e20746869732060008201527f7661756c74000000000000000000000000000000000000000000000000000000602082015250565b60006112b1602583610db4565b91506112bc82611255565b604082019050919050565b600060208201905081810360008301526112e0816112a4565b9050919050565b60006040820190506112fc6000830185610d9a565b6113096020830184610d8b565b9392505050565b7f4e487b7100000000000000000000000000000000000000000000000000000000600052602260045260246000fd5b6000600282049050600182168061135757607f821691505b60208210810361136a57611369611310565b5b50919050565b60008160f81b9050919050565b600061138882611370565b9050919050565b6113a061139b82610bb2565b61137d565b82525050565b600081905092915050565b60006113bc82610da9565b6113c681856113a6565b93506113d6818560208601610dc5565b80840191505092915050565b60008160601b9050919050565b60006113fa826113e2565b9050919050565b600061140c826113ef565b9050919050565b61142461141f82610cac565b611401565b82525050565b6000611436828661138f565b60018201915061144682856113b1565b91506114528284611413565b601482019150819050949350505050565b7f4e487b7100000000000000000000000000000000000000000000000000000000600052603260045260246000fd5b600081519050919050565b6000819050602082019050919050565b60006114b98251610bfd565b80915050919050565b600082821b905092915050565b60006114da82611492565b826114e48461149d565b90506114ef816114ad565b9250602082101561152f5761152a7fffffffffffffffffffffffffffffffffffffffffffffffffffffffffffffffff836020036008026114c2565b831692505b5050919050565b60008190508160005260206000209050919050565b60006020601f8301049050919050565b60006008830261158b7fffffffffffffffffffffffffffffffffffffffffffffffffffffffffffffffff826114c2565b61159586836114c2565b95508019841693508086168417925050509392505050565b6000819050919050565b60006115d26115cd6115c884610d81565b6115ad565b610d81565b9050919050565b6000819050919050565b6115ec836115b7565b6116006115f8826115d9565b84845461155b565b825550505050565b600090565b611615611608565b6116208184846115e3565b505050565b5b818110156116445761163960008261160d565b600181019050611626565b5050565b601f8211156116895761165a81611536565b6116638461154b565b81016020851015611672578190505b61168661167e8561154b565b830182611625565b50505b505050565b600082821c905092915050565b60006116ac6000198460080261168e565b1980831691505092915050565b60006116c5838361169b565b9150826002028217905092915050565b6116de82610da9565b67ffffffffffffffff8111156116f7576116f6610f88565b5b611701825461133f565b61170c828285611648565b600060209050601f83116001811461173f576000841561172d578287015190505b61173785826116b9565b86555061179f565b601f19841661174d86611536565b60005b8281101561177557848901518255600182019150602085019450602081019050611750565b86831015611792578489015161178e601f89168261169b565b8355505b6001600288020188555050505b505050505050565b7f4e487b7100000000000000000000000000000000000000000000000000000000600052601160045260246000fd5b60006117e182610bb2565b915060ff82036117f4576117f36117a7565b5b600182019050919050565b7f5661756c74206973207374696c6c206163746976650000000000000000000000600082015250565b6000611835601583610db4565b9150611840826117ff565b602082019050919050565b6000602082019050818103600083015261186481611828565b9050919050565b600061187682610bb2565b915061188183610bb2565b925082820261188f81610bb2565b91508082146118a1576118a06117a7565b5b5092915050565b60006118b382610d81565b91506118be83610d81565b92508282019050808211156118d6576118d56117a7565b5b92915050565b7f5661756c74206475726174696f6e20686173206e6f7420656e64656400000000600082015250565b6000611912601c83610db4565b915061191d826118dc565b602082019050919050565b6000602082019050818103600083015261194181611905565b905091905056fea2646970667358221220619cf9eef07f21c49bbe404213833fa6c1ec9359133dab957d4588379f77ef0c64736f6c634300081c0033",
    "linkReferences": {},
    "deployedLinkReferences": {}
}